{
  "_format": "hh3-artifact-1",
  "contractName": "PredictionMarket",
  "sourceName": "contracts/PredictionMarket.sol",
  "abi": [
    {
      "inputs": [],
      "stateMutability": "nonpayable",
      "type": "constructor"
    },
    {
      "anonymous": false,
      "inputs": [
        {
          "indexed": true,
          "internalType": "uint256",
          "name": "id",
          "type": "uint256"
        },
        {
          "indexed": true,
          "internalType": "address",
          "name": "user",
          "type": "address"
        },
        {
          "indexed": false,
          "internalType": "bool",
          "name": "yes",
          "type": "bool"
        },
        {
          "indexed": false,
          "internalType": "uint256",
          "name": "amount",
          "type": "uint256"
        }
      ],
      "name": "BetPlaced",
      "type": "event"
    },
    {
      "anonymous": false,
      "inputs": [
        {
          "indexed": true,
          "internalType": "uint256",
          "name": "id",
          "type": "uint256"
        },
        {
          "indexed": true,
          "internalType": "address",
          "name": "user",
          "type": "address"
        },
        {
          "indexed": false,
          "internalType": "uint256",
          "name": "payout",
          "type": "uint256"
        }
      ],
      "name": "Claimed",
      "type": "event"
    },
    {
      "anonymous": false,
      "inputs": [
        {
          "indexed": true,
          "internalType": "uint256",
          "name": "id",
          "type": "uint256"
        },
        {
          "indexed": false,
          "internalType": "uint64",
          "name": "closeTime",
          "type": "uint64"
        }
      ],
      "name": "MarketCreated",
      "type": "event"
    },
    {
      "anonymous": false,
      "inputs": [
        {
          "indexed": true,
          "internalType": "uint256",
          "name": "id",
          "type": "uint256"
        },
        {
          "indexed": false,
          "internalType": "bool",
          "name": "outcomeYes",
          "type": "bool"
        }
      ],
      "name": "Resolved",
      "type": "event"
    },
    {
      "inputs": [
        {
          "internalType": "uint256",
          "name": "id",
          "type": "uint256"
        }
      ],
      "name": "betNo",
      "outputs": [],
      "stateMutability": "payable",
      "type": "function"
    },
    {
      "inputs": [
        {
          "internalType": "uint256",
          "name": "id",
          "type": "uint256"
        }
      ],
      "name": "betYes",
      "outputs": [],
      "stateMutability": "payable",
      "type": "function"
    },
    {
      "inputs": [
        {
          "internalType": "uint256",
          "name": "id",
          "type": "uint256"
        }
      ],
      "name": "claim",
      "outputs": [
        {
          "internalType": "uint256",
          "name": "payout",
          "type": "uint256"
        }
      ],
      "stateMutability": "nonpayable",
      "type": "function"
    },
    {
      "inputs": [
        {
          "internalType": "uint256",
          "name": "",
          "type": "uint256"
        },
        {
          "internalType": "address",
          "name": "",
          "type": "address"
        }
      ],
      "name": "claimed",
      "outputs": [
        {
          "internalType": "bool",
          "name": "",
          "type": "bool"
        }
      ],
      "stateMutability": "view",
      "type": "function"
    },
    {
      "inputs": [
        {
          "internalType": "uint64",
          "name": "closeTime",
          "type": "uint64"
        }
      ],
      "name": "createMarket",
      "outputs": [
        {
          "internalType": "uint256",
          "name": "id",
          "type": "uint256"
        }
      ],
      "stateMutability": "nonpayable",
      "type": "function"
    },
    {
      "inputs": [
        {
          "internalType": "uint256",
          "name": "",
          "type": "uint256"
        }
      ],
      "name": "markets",
      "outputs": [
        {
          "internalType": "uint256",
          "name": "yesPool",
          "type": "uint256"
        },
        {
          "internalType": "uint256",
          "name": "noPool",
          "type": "uint256"
        },
        {
          "internalType": "uint64",
          "name": "closeTime",
          "type": "uint64"
        },
        {
          "internalType": "bool",
          "name": "resolved",
          "type": "bool"
        },
        {
          "internalType": "bool",
          "name": "outcomeYes",
          "type": "bool"
        }
      ],
      "stateMutability": "view",
      "type": "function"
    },
    {
      "inputs": [],
      "name": "nextMarketId",
      "outputs": [
        {
          "internalType": "uint256",
          "name": "",
          "type": "uint256"
        }
      ],
      "stateMutability": "view",
      "type": "function"
    },
    {
      "inputs": [
        {
          "internalType": "uint256",
          "name": "",
          "type": "uint256"
        },
        {
          "internalType": "address",
          "name": "",
          "type": "address"
        }
      ],
      "name": "noBets",
      "outputs": [
        {
          "internalType": "uint256",
          "name": "",
          "type": "uint256"
        }
      ],
      "stateMutability": "view",
      "type": "function"
    },
    {
      "inputs": [],
      "name": "owner",
      "outputs": [
        {
          "internalType": "address",
          "name": "",
          "type": "address"
        }
      ],
      "stateMutability": "view",
      "type": "function"
    },
    {
      "inputs": [
        {
          "internalType": "uint256",
          "name": "id",
          "type": "uint256"
        }
      ],
      "name": "priceYesBps",
      "outputs": [
        {
          "internalType": "uint256",
          "name": "bps",
          "type": "uint256"
        }
      ],
      "stateMutability": "view",
      "type": "function"
    },
    {
      "inputs": [
        {
          "internalType": "uint256",
          "name": "id",
          "type": "uint256"
        },
        {
          "internalType": "bool",
          "name": "outcomeYes",
          "type": "bool"
        }
      ],
      "name": "resolve",
      "outputs": [],
      "stateMutability": "nonpayable",
      "type": "function"
    },
    {
      "inputs": [],
      "name": "resolver",
      "outputs": [
        {
          "internalType": "address",
          "name": "",
          "type": "address"
        }
      ],
      "stateMutability": "view",
      "type": "function"
    },
    {
      "inputs": [
        {
          "internalType": "address",
          "name": "_resolver",
          "type": "address"
        }
      ],
      "name": "setResolver",
      "outputs": [],
      "stateMutability": "nonpayable",
      "type": "function"
    },
    {
      "inputs": [
        {
          "internalType": "uint256",
          "name": "",
          "type": "uint256"
        },
        {
          "internalType": "address",
          "name": "",
          "type": "address"
        }
      ],
      "name": "yesBets",
      "outputs": [
        {
          "internalType": "uint256",
          "name": "",
          "type": "uint256"
        }
      ],
      "stateMutability": "view",
      "type": "function"
    }
  ],
  "bytecode": "0x6080604052348015600e575f5ffd5b505f80546001600160a01b03191633179055610df98061002d5f395ff3fe6080604052600436106100d9575f3560e01c8063415a4a251161007c5780638da5cb5b116100575780638da5cb5b1461028257806393467525146102a0578063b1283e77146102b3578063f35b355214610346575f5ffd5b8063415a4a251461022f5780634e543b261461024457806352a34b0514610263575f5ffd5b8063155e4b82116100b7578063155e4b821461018f578063354c6199146101c5578063379607f5146101fb578063406ef2ef1461021a575f5ffd5b806304f3bcec146100dd578063120aa87714610119578063152e503014610162575b5f5ffd5b3480156100e8575f5ffd5b506001546100fc906001600160a01b031681565b6040516001600160a01b0390911681526020015b60405180910390f35b348015610124575f5ffd5b50610152610133366004610c6e565b600660209081525f928352604080842090915290825290205460ff1681565b6040519015158152602001610110565b34801561016d575f5ffd5b5061018161017c366004610c98565b610365565b604051908152602001610110565b34801561019a575f5ffd5b506101816101a9366004610c6e565b600560209081525f928352604080842090915290825290205481565b3480156101d0575f5ffd5b506101816101df366004610c6e565b600460209081525f928352604080842090915290825290205481565b348015610206575f5ffd5b50610181610215366004610cc6565b6104f7565b348015610225575f5ffd5b5061018160025481565b61024261023d366004610cc6565b610783565b005b34801561024f575f5ffd5b5061024261025e366004610cdd565b610790565b34801561026e575f5ffd5b5061024261027d366004610cf6565b61083d565b34801561028d575f5ffd5b505f546100fc906001600160a01b031681565b6102426102ae366004610cc6565b6109cd565b3480156102be575f5ffd5b5061030d6102cd366004610cc6565b60036020525f908152604090208054600182015460029092015490919067ffffffffffffffff81169060ff600160401b8204811691600160481b90041685565b60408051958652602086019490945267ffffffffffffffff9092169284019290925290151560608301521515608082015260a001610110565b348015610351575f5ffd5b50610181610360366004610cc6565b6109d8565b6001545f906001600160a01b031633146103b65760405162461bcd60e51b815260206004820152600d60248201526c27a7262cafa922a9a7a62b22a960991b60448201526064015b60405180910390fd5b428267ffffffffffffffff16116103ff5760405162461bcd60e51b815260206004820152600d60248201526c10d313d4d157d25397d41054d5609a1b60448201526064016103ad565b60028054905f61040e83610d3c565b909155506040805160a0810182525f808252602080830182815267ffffffffffffffff80891685870190815260608601858152608087018681528987526003909552948790209551865591516001860155905160029094018054935192511515600160481b0269ff00000000000000000019931515600160401b0268ffffffffffffffffff19909516959092169490941792909217161790555190915081907f7595a3bf45d01ef9254ae39f1ec19be2262703373153bde26e12a962b0532299906104ea90859067ffffffffffffffff91909116815260200190565b60405180910390a2919050565b5f8181526003602052604081206002810154600160401b900460ff1661054e5760405162461bcd60e51b815260206004820152600c60248201526b1393d517d49154d3d315915160a21b60448201526064016103ad565b5f83815260066020908152604080832033845290915290205460ff16156105a95760405162461bcd60e51b815260206004820152600f60248201526e1053149150511657d0d31052535151608a1b60448201526064016103ad565b5f8381526006602090815260408083203384529091528120805460ff1916600190811790915582015482546105de9190610d54565b60028301549091505f90600160481b900460ff16610600578260010154610603565b82545b60028401549091505f90600160481b900460ff16610639575f868152600560209081526040808320338452909152902054610653565b5f8681526004602090815260408083203384529091529020545b9050811580610660575080155b156106a7576040515f8152339087907f4ec90e965519d92681267467f775ada5bd214aa92c0dc93d90a5e880ce9ed0269060200160405180910390a3505f95945050505050565b816106b28285610d6d565b6106bc9190610d84565b6040519095505f90339087908381818185875af1925050503d805f81146106fe576040519150601f19603f3d011682016040523d82523d5f602084013e610703565b606091505b50509050806107425760405162461bcd60e51b815260206004820152600b60248201526a14105653d55517d190525360aa1b60448201526064016103ad565b604051868152339088907f4ec90e965519d92681267467f775ada5bd214aa92c0dc93d90a5e880ce9ed0269060200160405180910390a35050505050919050565b61078d815f610a61565b50565b5f546001600160a01b031633146107d65760405162461bcd60e51b815260206004820152600a60248201526927a7262cafa7aba722a960b11b60448201526064016103ad565b6001600160a01b03811661081b5760405162461bcd60e51b815260206004820152600c60248201526b2120a22fa922a9a7a62b22a960a11b60448201526064016103ad565b600180546001600160a01b0319166001600160a01b0392909216919091179055565b6001546001600160a01b031633146108875760405162461bcd60e51b815260206004820152600d60248201526c27a7262cafa922a9a7a62b22a960991b60448201526064016103ad565b5f828152600360205260409020600281015467ffffffffffffffff161515806108ae575082155b6108ca5760405162461bcd60e51b81526004016103ad90610da3565b6002810154600160401b900460ff16156109195760405162461bcd60e51b815260206004820152601060248201526f1053149150511657d49154d3d315915160821b60448201526064016103ad565b600281015467ffffffffffffffff164210156109635760405162461bcd60e51b8152602060048201526009602482015268544f4f5f4541524c5960b81b60448201526064016103ad565b600281018054831515600160481b0269ffff00000000000000001990911617600160401b17905560405183907fe940c2f4a2e1dda6ea582b576e35520a2ec6b80e436c26962c1150ddd7d07993906109c090851515815260200190565b60405180910390a2505050565b61078d816001610a61565b5f818152600360205260408120600281015467ffffffffffffffff161515806109ff575082155b610a1b5760405162461bcd60e51b81526004016103ad90610da3565b600181015481545f91610a2d91610d54565b9050805f03610a3f57505f9392505050565b81548190610a4f90612710610d6d565b610a599190610d84565b949350505050565b5f3411610a9b5760405162461bcd60e51b81526020600482015260086024820152674e4f5f56414c554560c01b60448201526064016103ad565b5f828152600360205260409020600281015467ffffffffffffffff16151580610ac2575082155b610ade5760405162461bcd60e51b81526004016103ad90610da3565b600281015467ffffffffffffffff164210610b2b5760405162461bcd60e51b815260206004820152600d60248201526c13505492d15517d0d313d4d151609a1b60448201526064016103ad565b6002810154600160401b900460ff1615610b7a5760405162461bcd60e51b815260206004820152601060248201526f1053149150511657d49154d3d315915160821b60448201526064016103ad565b8115610bca5734815f015f828254610b929190610d54565b90915550505f83815260046020908152604080832033845290915281208054349290610bbf908490610d54565b90915550610c109050565b34816001015f828254610bdd9190610d54565b90915550505f83815260056020908152604080832033845290915281208054349290610c0a908490610d54565b90915550505b604080518315158152346020820152339185917f4af71b021e799c62c158bd54636ca8da2fa26115a21a2dc6efe486ec104fd15f910160405180910390a3505050565b80356001600160a01b0381168114610c69575f5ffd5b919050565b5f5f60408385031215610c7f575f5ffd5b82359150610c8f60208401610c53565b90509250929050565b5f60208284031215610ca8575f5ffd5b813567ffffffffffffffff81168114610cbf575f5ffd5b9392505050565b5f60208284031215610cd6575f5ffd5b5035919050565b5f60208284031215610ced575f5ffd5b610cbf82610c53565b5f5f60408385031215610d07575f5ffd5b8235915060208301358015158114610d1d575f5ffd5b809150509250929050565b634e487b7160e01b5f52601160045260245ffd5b5f60018201610d4d57610d4d610d28565b5060010190565b80820180821115610d6757610d67610d28565b92915050565b8082028115828204841417610d6757610d67610d28565b5f82610d9e57634e487b7160e01b5f52601260045260245ffd5b500490565b60208082526006908201526510905117d25160d21b60408201526060019056fea264697066735822122019d0368178645a49738589fbe13442f255c36ada3169d04bb5aa7cdff10170b264736f6c634300081c0033",
  "linkReferences": {},
  "deployedLinkReferences": {},
  "immutableReferences": {},
  "inputSourceName": "project/contracts/PredictionMarket.sol",
  "buildInfoId": "solc-0_8_28-eb17a95815cc852f274a42eeb301ffc097ff3266"
}