{
  "_format": "hh3-artifact-1",
  "contractName": "Treasury",
  "sourceName": "contracts/Treasury.sol",
  "abi": [
    {
      "inputs": [],
      "stateMutability": "nonpayable",
      "type": "constructor"
    },
    {
      "anonymous": false,
      "inputs": [
        {
          "indexed": true,
          "internalType": "address",
          "name": "governor",
          "type": "address"
        }
      ],
      "name": "GovernorSet",
      "type": "event"
    },
    {
      "anonymous": false,
      "inputs": [
        {
          "indexed": true,
          "internalType": "address",
          "name": "to",
          "type": "address"
        },
        {
          "indexed": false,
          "internalType": "uint256",
          "name": "amount",
          "type": "uint256"
        }
      ],
      "name": "Sent",
      "type": "event"
    },
    {
      "inputs": [],
      "name": "governor",
      "outputs": [
        {
          "internalType": "address",
          "name": "",
          "type": "address"
        }
      ],
      "stateMutability": "view",
      "type": "function"
    },
    {
      "inputs": [],
      "name": "owner",
      "outputs": [
        {
          "internalType": "address",
          "name": "",
          "type": "address"
        }
      ],
      "stateMutability": "view",
      "type": "function"
    },
    {
      "inputs": [
        {
          "internalType": "address payable",
          "name": "to",
          "type": "address"
        },
        {
          "internalType": "uint256",
          "name": "amount",
          "type": "uint256"
        }
      ],
      "name": "sendTo",
      "outputs": [],
      "stateMutability": "nonpayable",
      "type": "function"
    },
    {
      "inputs": [
        {
          "internalType": "address",
          "name": "_governor",
          "type": "address"
        }
      ],
      "name": "setGovernor",
      "outputs": [],
      "stateMutability": "nonpayable",
      "type": "function"
    },
    {
      "stateMutability": "payable",
      "type": "receive"
    }
  ],
  "bytecode": "0x6080604052348015600e575f5ffd5b50600180546001600160a01b031916331790556104328061002e5f395ff3fe608060405260043610610041575f3560e01c80630c340a241461004c5780638da5cb5b146100865780639e1a00aa146100a5578063c42cf535146100c6575f5ffd5b3661004857005b5f5ffd5b348015610057575f5ffd5b505f5461006a906001600160a01b031681565b6040516001600160a01b03909116815260200160405180910390f35b348015610091575f5ffd5b5060015461006a906001600160a01b031681565b3480156100b0575f5ffd5b506100c46100bf3660046103b0565b6100e5565b005b3480156100d1575f5ffd5b506100c46100e03660046103da565b6102c6565b5f546001600160a01b031633146101335760405162461bcd60e51b815260206004820152600d60248201526c27a7262cafa3a7ab22a92727a960991b60448201526064015b60405180910390fd5b6001600160a01b0382166101725760405162461bcd60e51b81526020600482015260066024820152654241445f544f60d01b604482015260640161012a565b5f81116101ae5760405162461bcd60e51b815260206004820152600a60248201526910905117d05353d5539560b21b604482015260640161012a565b804710156101ef5760405162461bcd60e51b815260206004820152600e60248201526d54524541535552595f454d50545960901b604482015260640161012a565b5f826001600160a01b0316826040515f6040518083038185875af1925050503d805f8114610238576040519150601f19603f3d011682016040523d82523d5f602084013e61023d565b606091505b505090508061027e5760405162461bcd60e51b815260206004820152600d60248201526c1514905394d1915497d1905253609a1b604482015260640161012a565b826001600160a01b03167f510ffb4dcab972ae9d2007a58e13f1b0881776d23cd8f5cc32f8c5be2dbf70d2836040516102b991815260200190565b60405180910390a2505050565b6001546001600160a01b0316331461030d5760405162461bcd60e51b815260206004820152600a60248201526927a7262cafa7aba722a960b11b604482015260640161012a565b6001600160a01b0381166103525760405162461bcd60e51b815260206004820152600c60248201526b2120a22fa3a7ab22a92727a960a11b604482015260640161012a565b5f80546001600160a01b0319166001600160a01b038316908117825560405190917f1cbb37f5a02c38ab13773cb770fae505cce417a4d81560117389e3a9f7e001f291a250565b6001600160a01b03811681146103ad575f5ffd5b50565b5f5f604083850312156103c1575f5ffd5b82356103cc81610399565b946020939093013593505050565b5f602082840312156103ea575f5ffd5b81356103f581610399565b939250505056fea264697066735822122042b64cd74656404e5eb24206c5ea715bfce9887fce74f96e8dde88e705d78a2364736f6c634300081c0033",
  "linkReferences": {},
  "deployedLinkReferences": {},
  "immutableReferences": {},
  "inputSourceName": "project/contracts/Treasury.sol",
  "buildInfoId": "solc-0_8_28-eb256405ffc87ca3b36e98c34bb524fee5a8b346"
}