{
  "_format": "hh3-artifact-1",
  "contractName": "Governor",
  "sourceName": "contracts/Governor.sol",
  "abi": [
    {
      "inputs": [
        {
          "internalType": "address",
          "name": "_pm",
          "type": "address"
        },
        {
          "internalType": "address payable",
          "name": "_treasury",
          "type": "address"
        },
        {
          "internalType": "uint256",
          "name": "_minYesBps",
          "type": "uint256"
        }
      ],
      "stateMutability": "nonpayable",
      "type": "constructor"
    },
    {
      "anonymous": false,
      "inputs": [
        {
          "indexed": true,
          "internalType": "uint256",
          "name": "proposalId",
          "type": "uint256"
        },
        {
          "indexed": true,
          "internalType": "address",
          "name": "recipient",
          "type": "address"
        },
        {
          "indexed": false,
          "internalType": "uint256",
          "name": "amount",
          "type": "uint256"
        }
      ],
      "name": "Executed",
      "type": "event"
    },
    {
      "anonymous": false,
      "inputs": [
        {
          "indexed": true,
          "internalType": "uint256",
          "name": "proposalId",
          "type": "uint256"
        },
        {
          "indexed": true,
          "internalType": "uint256",
          "name": "marketId",
          "type": "uint256"
        },
        {
          "indexed": true,
          "internalType": "address",
          "name": "recipient",
          "type": "address"
        },
        {
          "indexed": false,
          "internalType": "uint256",
          "name": "amount",
          "type": "uint256"
        },
        {
          "indexed": false,
          "internalType": "uint64",
          "name": "deadline",
          "type": "uint64"
        }
      ],
      "name": "ProposalCreated",
      "type": "event"
    },
    {
      "inputs": [
        {
          "internalType": "uint256",
          "name": "proposalId",
          "type": "uint256"
        }
      ],
      "name": "canExecute",
      "outputs": [
        {
          "internalType": "bool",
          "name": "",
          "type": "bool"
        }
      ],
      "stateMutability": "view",
      "type": "function"
    },
    {
      "inputs": [
        {
          "internalType": "uint256",
          "name": "proposalId",
          "type": "uint256"
        }
      ],
      "name": "execute",
      "outputs": [],
      "stateMutability": "nonpayable",
      "type": "function"
    },
    {
      "inputs": [],
      "name": "minYesBpsToExecute",
      "outputs": [
        {
          "internalType": "uint256",
          "name": "",
          "type": "uint256"
        }
      ],
      "stateMutability": "view",
      "type": "function"
    },
    {
      "inputs": [],
      "name": "nextProposalId",
      "outputs": [
        {
          "internalType": "uint256",
          "name": "",
          "type": "uint256"
        }
      ],
      "stateMutability": "view",
      "type": "function"
    },
    {
      "inputs": [],
      "name": "owner",
      "outputs": [
        {
          "internalType": "address",
          "name": "",
          "type": "address"
        }
      ],
      "stateMutability": "view",
      "type": "function"
    },
    {
      "inputs": [],
      "name": "pm",
      "outputs": [
        {
          "internalType": "contract PredictionMarket",
          "name": "",
          "type": "address"
        }
      ],
      "stateMutability": "view",
      "type": "function"
    },
    {
      "inputs": [
        {
          "internalType": "uint256",
          "name": "",
          "type": "uint256"
        }
      ],
      "name": "proposals",
      "outputs": [
        {
          "internalType": "uint256",
          "name": "id",
          "type": "uint256"
        },
        {
          "internalType": "string",
          "name": "description",
          "type": "string"
        },
        {
          "internalType": "address payable",
          "name": "recipient",
          "type": "address"
        },
        {
          "internalType": "uint256",
          "name": "amount",
          "type": "uint256"
        },
        {
          "internalType": "uint64",
          "name": "deadline",
          "type": "uint64"
        },
        {
          "internalType": "bool",
          "name": "executed",
          "type": "bool"
        },
        {
          "internalType": "uint256",
          "name": "marketId",
          "type": "uint256"
        }
      ],
      "stateMutability": "view",
      "type": "function"
    },
    {
      "inputs": [
        {
          "internalType": "string",
          "name": "description",
          "type": "string"
        },
        {
          "internalType": "address payable",
          "name": "recipient",
          "type": "address"
        },
        {
          "internalType": "uint256",
          "name": "amount",
          "type": "uint256"
        },
        {
          "internalType": "uint64",
          "name": "deadline",
          "type": "uint64"
        },
        {
          "internalType": "uint64",
          "name": "marketCloseTime",
          "type": "uint64"
        }
      ],
      "name": "propose",
      "outputs": [
        {
          "internalType": "uint256",
          "name": "proposalId",
          "type": "uint256"
        },
        {
          "internalType": "uint256",
          "name": "marketId",
          "type": "uint256"
        }
      ],
      "stateMutability": "nonpayable",
      "type": "function"
    },
    {
      "inputs": [
        {
          "internalType": "uint256",
          "name": "proposalId",
          "type": "uint256"
        },
        {
          "internalType": "bool",
          "name": "outcomeYes",
          "type": "bool"
        }
      ],
      "name": "resolveMarket",
      "outputs": [],
      "stateMutability": "nonpayable",
      "type": "function"
    },
    {
      "inputs": [
        {
          "internalType": "uint256",
          "name": "bps",
          "type": "uint256"
        }
      ],
      "name": "setMinYesBps",
      "outputs": [],
      "stateMutability": "nonpayable",
      "type": "function"
    },
    {
      "inputs": [],
      "name": "treasury",
      "outputs": [
        {
          "internalType": "contract Treasury",
          "name": "",
          "type": "address"
        }
      ],
      "stateMutability": "view",
      "type": "function"
    }
  ],
  "bytecode": "0x608060405234801561000f575f5ffd5b50604051610e90380380610e9083398101604081905261002e9161011f565b6001600160a01b0383161580159061004e57506001600160a01b03821615155b61008a5760405162461bcd60e51b81526020600482015260086024820152672120a22fa0a2222960c11b60448201526064015b60405180910390fd5b6127108111156100c65760405162461bcd60e51b81526020600482015260076024820152664241445f42505360c81b6044820152606401610081565b5f80546001600160a01b03199081163317909155600380546001600160a01b03958616908316179055600480549390941692169190911790915560025561015f565b6001600160a01b038116811461011c575f5ffd5b50565b5f5f5f60608486031215610131575f5ffd5b835161013c81610108565b602085015190935061014d81610108565b80925050604084015190509250925092565b610d248061016c5f395ff3fe608060405234801561000f575f5ffd5b50600436106100a6575f3560e01c80638970cdff1161006e5780638970cdff146101435780638da5cb5b146101565780638f1e098e146101685780638fc9ef5b14610171578063cc63604a14610199578063fe0d94c1146101bc575f5ffd5b8063013cf08b146100aa5780632ab09d14146100d957806357bde446146100f057806361d027b3146101055780637d8f7d0314610130575b5f5ffd5b6100bd6100b83660046109ac565b6101cf565b6040516100d097969594939291906109c3565b60405180910390f35b6100e260015481565b6040519081526020016100d0565b6101036100fe366004610a37565b6102aa565b005b600454610118906001600160a01b031681565b6040516001600160a01b0390911681526020016100d0565b61010361013e3660046109ac565b610398565b600354610118906001600160a01b031681565b5f54610118906001600160a01b031681565b6100e260025481565b61018461017f366004610a9a565b610402565b604080519283526020830191909152016100d0565b6101ac6101a73660046109ac565b610781565b60405190151581526020016100d0565b6101036101ca3660046109ac565b610871565b60056020525f9081526040902080546001820180549192916101f090610b3d565b80601f016020809104026020016040519081016040528092919081815260200182805461021c90610b3d565b80156102675780601f1061023e57610100808354040283529160200191610267565b820191905f5260205f20905b81548152906001019060200180831161024a57829003601f168201915b5050505060028301546003840154600485015460059095015493946001600160a01b03909216939092506001600160401b03821691600160401b900460ff169087565b5f546001600160a01b031633146102dc5760405162461bcd60e51b81526004016102d390610b75565b60405180910390fd5b5f82815260056020526040902060028101546001600160a01b031661032c5760405162461bcd60e51b815260206004820152600660248201526510905117d25160d21b60448201526064016102d3565b60035460058201546040516352a34b0560e01b8152600481019190915283151560248201526001600160a01b03909116906352a34b05906044015f604051808303815f87803b15801561037d575f5ffd5b505af115801561038f573d5f5f3e3d5ffd5b50505050505050565b5f546001600160a01b031633146103c15760405162461bcd60e51b81526004016102d390610b75565b6127108111156103fd5760405162461bcd60e51b81526020600482015260076024820152664241445f42505360c81b60448201526064016102d3565b600255565b5f805481906001600160a01b0316331461042e5760405162461bcd60e51b81526004016102d390610b75565b6001600160a01b0386166104745760405162461bcd60e51b815260206004820152600d60248201526c10905117d49150d25412515395609a1b60448201526064016102d3565b5f85116104b05760405162461bcd60e51b815260206004820152600a60248201526910905117d05353d5539560b21b60448201526064016102d3565b42846001600160401b0316116104f75760405162461bcd60e51b815260206004820152600c60248201526b4241445f444541444c494e4560a01b60448201526064016102d3565b42836001600160401b03161161053b5760405162461bcd60e51b81526020600482015260096024820152684241445f434c4f534560b81b60448201526064016102d3565b826001600160401b0316846001600160401b0316116105945760405162461bcd60e51b8152602060048201526015602482015274444541444c494e455f4245464f52455f434c4f534560581b60448201526064016102d3565b600354604051630152e50360e41b81526001600160401b03851660048201526001600160a01b039091169063152e5030906024016020604051808303815f875af11580156105e4573d5f5f3e3d5ffd5b505050506040513d601f19601f820116820180604052508101906106089190610b99565b600180549192505f61061983610bb0565b9190505591506040518060e0016040528083815260200189898080601f0160208091040260200160405190810160405280939291908181526020018383808284375f9201829052509385525050506001600160a01b03891660208084019190915260408084018a90526001600160401b03891660608501526080840183905260a090930185905285825260058152919020825181559082015160018201906106c19082610c34565b506040828101516002830180546001600160a01b039283166001600160a01b031990911617905560608401516003840155608084015160048401805460a08701511515600160401b0268ffffffffffffffffff199091166001600160401b039384161717905560c0909401516005909301929092558051888152928716602084015290881691839185917f59e5086db609b24f705b7d0740a2412645bb5ed39d7fad39daa570bd0ba1c09c910160405180910390a4965096945050505050565b5f81815260056020526040812060028101546001600160a01b03166107a857505f92915050565b6004810154600160401b900460ff16156107c457505f92915050565b60048101546001600160401b03164210156107e157505f92915050565b60035460058201546040516379ad9aa960e11b815260048101919091525f916001600160a01b03169063f35b355290602401602060405180830381865afa15801561082e573d5f5f3e3d5ffd5b505050506040513d601f19601f820116820180604052508101906108529190610b99565b905060025481101561086757505f9392505050565b5060019392505050565b61087a81610781565b6108b75760405162461bcd60e51b815260206004820152600e60248201526d43414e4e4f545f4558454355544560901b60448201526064016102d3565b5f81815260056020526040908190206004808201805468ff00000000000000001916600160401b1790558054600283015460038401549451634f0d005560e11b815293946001600160a01b0392831694639e1a00aa94610930949390931692016001600160a01b03929092168252602082015260400190565b5f604051808303815f87803b158015610947575f5ffd5b505af1158015610959573d5f5f3e3d5ffd5b50505050600281015460038201546040519081526001600160a01b039091169083907f12c8907d32b752d626a36cf18f31719e25f1a3b6f750ee948c22c036373d48aa9060200160405180910390a35050565b5f602082840312156109bc575f5ffd5b5035919050565b87815260e060208201525f87518060e08401528060208a0161010085015e5f6101008285018101919091526001600160a01b039890981660408401526060830196909652506001600160401b0393909316608084015290151560a083015260c0820152601f909101601f1916010192915050565b5f5f60408385031215610a48575f5ffd5b8235915060208301358015158114610a5e575f5ffd5b809150509250929050565b80356001600160a01b0381168114610a7f575f5ffd5b919050565b80356001600160401b0381168114610a7f575f5ffd5b5f5f5f5f5f5f60a08789031215610aaf575f5ffd5b86356001600160401b03811115610ac4575f5ffd5b8701601f81018913610ad4575f5ffd5b80356001600160401b03811115610ae9575f5ffd5b896020828401011115610afa575f5ffd5b602091820197509550610b0e908801610a69565b935060408701359250610b2360608801610a84565b9150610b3160808801610a84565b90509295509295509295565b600181811c90821680610b5157607f821691505b602082108103610b6f57634e487b7160e01b5f52602260045260245ffd5b50919050565b6020808252600a908201526927a7262cafa7aba722a960b11b604082015260600190565b5f60208284031215610ba9575f5ffd5b5051919050565b5f60018201610bcd57634e487b7160e01b5f52601160045260245ffd5b5060010190565b634e487b7160e01b5f52604160045260245ffd5b601f821115610c2f57805f5260205f20601f840160051c81016020851015610c0d5750805b601f840160051c820191505b81811015610c2c575f8155600101610c19565b50505b505050565b81516001600160401b03811115610c4d57610c4d610bd4565b610c6181610c5b8454610b3d565b84610be8565b6020601f821160018114610c93575f8315610c7c5750848201515b5f19600385901b1c1916600184901b178455610c2c565b5f84815260208120601f198516915b82811015610cc25787850151825560209485019460019092019101610ca2565b5084821015610cdf57868401515f19600387901b60f8161c191681555b50505050600190811b0190555056fea2646970667358221220a16e1d18ac34bbff5624f29a09ceca27e9decd65c1ac0997a1ef84e6a4b5d29664736f6c634300081c0033",
  "linkReferences": {},
  "deployedLinkReferences": {},
  "immutableReferences": {},
  "inputSourceName": "project/contracts/Governor.sol",
  "buildInfoId": "solc-0_8_28-90a270e0da8910f59b6a58637289e970db25b013"
}